:100000005446495300010000887002002478078399
:1000100010340104170515164431435910340200F9
:1000200017051516443143591034010417051516E8
:1000300044314359030000000000000000000000AC
:100040005446435300200000C8470200000000004F
:100050000080011001210000252100004122000044
:10006000292100002B2100002D2100003D2100004E
:100070003D2100003D2100003D2100002F21000016
:10008000312100003D21000033210000595C0000B7
:100090003F5D0000372100003D210000F1540010B9
:1000A000372100004F400000554000003D21000076
:1000B0003D21000093580000F14F00005B4000001C
:1000C00019560000372100003D2100003D210000AD
:1000D0000000000000000000000000000000000020
:1000E0000000000000000000000000000000000010
:1000F0000000000000000000000000000000000000
:1001000000000000000000000000000000000000EF
:1001100000000000000000000000000000000000DF
:1001200000000000000000000000000000000000CF
:1001300000000000000000000000000000000000BF
:1001400000000000000000000000000000000000AF
:1001500000F003F800F020F8FEE70D480168890878
:100160008900002001C101C101C101C17047000027
:1001700090600010FEE7FEE7FEE7FEE7FEE7FEE721
:10018000FEE7FEE7FEE703480047FEE7FEE7000064
:10019000202100003D21000000F002F800F068F886
:1001A0000AA090E8000C82448344AAF10107DA45D2
:1001B00001D100F05DF8AFF2090EBAE80F0013F0BC
:1001C000010F18BFFB1A43F00103184744E4010074
:1001D00084E401000A444FF0000C10F8013B13F0D6
:1001E000070408BF10F8014B1D1108BF10F8015B90
:1001F000641E05D010F8016B641E01F8016BF9D183
:1002000013F0080F1EBF10F8014BAD1C0C1B09D1D9
:100210006D1E58BF01F801CBFAD505E014F8016B4B
:1002200001F8016B6D1EF9D59142D6D370470000DD
:10023000103A24BF78C878C1FAD8520724BF30C812
:1002400030C144BF04680C607047000000230024E4
:1002500000250026103A28BF78C1FBD8520728BFD6
:1002600030C148BF0B6070471FB51FBD10B510BD32
:10027000DFF80CD0FFF7F8FF05F042FA1CF0CFF8DA
:100280000080011003B4FFF7F1FF03BC1CF0CEF8AF
:100290001EF0040F0CBFEFF30880EFF309800AF0A3
:1002A000C5BE000008B5002103200B460A46009198
:1002B00019F0FEFF08BD38B5FE4D00246C81AC81FD
:1002C000EC8119F0C6FFE861FF20E871FA48234687
:1002D0002246046044600472012028726C612C7014
:1002E00003202146009419F0E3FF012038BD38B502
:1002F000F04D0228EC7922460DD0052810D0A242FC
:1003000008BF38BD0020034602462146009019F080
:10031000CFFFEC7138BD022914BF01240224EEE79F
:10032000022914BF64246524E9E738B513460A4658
:100330004FF0010C002401466046009419F0B8FF0C
:1003400038BDDC48C0697047DA4901204870704701
:10035000D84840787047D7490020487070472DE949
:10036000F04104460127002503F00700D14E8846DE
:10037000012804BF0020F08146D0022844D1F08932
:1003800004280BD2002818BFB06902D119F0B1FFC0
:10039000B06110F8011B2170B0612EE0062808D270
:1003A00019F0A9FFF189C1F10501C900C840207009
:1003B00023E0082808D219F0A2FFF189C1F1070152
:1003C000C900C840207018E00C2808D219F041FF7D
:1003D000F189C1F10B01C900C84020700DE00E2861
:1003E00008D219F038FFF189C1F10D01C900C840E8
:1003F000207002E0FF2020700027F089401C80B2AE
:10040000F0810E2828BF012588F800503846BDE845
:10041000F08130B403F007000024DFF898C201280F
:100420000BD06046BCF80E304089022B0CD2120271
:1004300042EA1020ACF80A0010E0ACF80A40ACF830
:100440000C40ACF80E400CE01844851EB5F5806FEA
:1004500004DADCF81C50284400F8022C581CACF8D4
:100460000E000C7030BC00207047F0B4074600202E
:1004700003F007048F4D0646012C04BFEE812E6168
:1004800025D0DFF830C2022CBCF80CC003D013F02A
:10049000070F0DD01BE0EA890CEB0203B3F5806F68
:1004A00015D2E869C05C3870501CE88101200EE06C
:1004B000120242EA1C22AA812B69012B05D1B2F556
:1004C000806F24BF40F2FF32AA815A1C2A610E704D
:1004D000F0BC704738B503F0070000240D46012832
:1004E0000AD1744821460B46C4814481848102208C
:1004F0000A46009419F0DCFE2C70002038BD00295B
:100500001CBF0129704730B583B00D46044605F085
:1005100005F905281CBF03B030BD0AF01EFE0428F3
:1005200004BF03B030BD002D0CBFC020C1208DF82A
:10053000000060788DF8010060880123000A8DF8C2
:100540000200A0788DF80300A0880622000A8DF82A
:10055000040020798DF80500694607200EF02AF87E
:1005600003B030BD30B50C0054A183B009684FF022
:100570000002029108BF03250AD0217802AB5D5C1E
:10058000002D18BF022D41D0012D7ED0032D0DD19D
:100590000F2101700321417042808280C28002815C
:1005A00042818281817B21F001018173002D1EBF78
:1005B000012D03B030BD05F0B1F805281CBF03B014
:1005C00030BD0AF0CAFD042804BF03B030BD002DC1
:1005D0000CBFC020C1208DF8000060788DF80100AC
:1005E00060880123000A8DF80200A0788DF80300CE
:1005F000A0880622000A8DF8040020798DF80500F5
:10060000694607200DF0D6FF03B030BD617800EBDE
:10061000011202F8101C617800EB011101F80F5C67
:100620006278618800EB021222F80E1C6278A188C1
:1006300000EB021222F80C1C6278A17900EB021286
:1006400022F80A1C6278217A00EB021222F8081CB8
:100650006278617A00EB021222F8061C6278217B34
:1006600000EB021222F8041CE1790529617800EB05
:10067000011010F8021C0EBF41F0010121F0010130
:1006800000F8021C92D13AE0FFE7617800EB011319
:1006900003F8101C6378012100EB031303F80F1C0F
:1006A0006378618800EB031323F80E1CA18863783C
:1006B00006E0000000840010BC8800100300020166
:1006C00000EB031323F80C1C617800EB011121F8F7
:1006D0000A2C617800EB011121F8082C617800EBFD
:1006E000011121F8062C617800EB011121F8042C8E
:1006F000617800EB011010F8021C21F0010100F8F4
:10070000021C53E774490020887070477248807853
:1007100070477149012088707047704A11547047C2
:100720006D4800B5C06983B04FF00001407810F00B
:10073000020F0AD000918DF80410012305226946AA
:1007400000200DF06EFF03B000BD10F0040F12D0BA
:1007500001208DF800008DF801108DF802108DF841
:1007600003108DF8041003460522694600200DF0A1
:1007700058FF03B000BD03B001230022632107200E
:100780005DF804EB0DF0E6BE10B5044615F016F961
:10079000002818BF10BD226812F0C00F12D04E48BA
:1007A00012F0400F04BF0021017004D0012101703C
:1007B0004169491C416101230021BDE81040062028
:1007C0000DF0C8BE012300226321BDE810400720C0
:1007D0000DF0C0BE70474049002818BF01200872C4
:1007E00070473D48007A70473B48C0787047002802
:1007F00018BF01203849C87070473748C078704723
:1008000035490871704734480079002818BF012025
:10081000704701460020072904BF31487047082966
:1008200008BF3048704710B44FF0000C072808BFCD
:10083000DFF8ACC003D0082808BFDFF8A8C04FF02D
:100840000000ABB1002A9CBF10BC70473CF91030CF
:10085000141A01EB440434F9024C234403EBD37320
:100860005B102CF81030401C8242EFD810BC70474F
:10087000002A9CBF10BC7047131A01EB430333F8E6
:10088000023C2CF81030401C8242F5D810BC704756
:1008900011480078002818BF012070470E484069B1
:1008A00070470D4948617047002818BF01200A4968
:1008B0004871704708484079002818BF01207047E8
:1008C000002818BF012004498871704702488079C8
:1008D000002818BF0120704700840010BC88001059
:1008E000CE880010C68800107047FE48D0F850032C
:1008F00000F00100704770B5FA4D04000AD001F015
:100900003AFB38B9D5F8500310F0010F1CBF002096
:10091000A86005D10120A860002C08BF002000D0ED
:100920000120286270BDEF48006A002818BF01202E
:100930007047C00000F1804000F5A040416370475F
:10094000C00000F1804000F5A040006B00F4807012
:1009500070471021C00000F1804000F5A0404163C5
:100960007047E049D1F8402160F30D22C1F84021E1
:100970007047DC48D0F84001C0F30520704700F014
:100980000F0202EB42029201C0F3031002EB80104F
:1009900000F1804000F5A0400029D0F8401114BFBC
:1009A00041F0010121F00101C0F84011704700F051
:1009B0000F0101EB41018901C0F3031001EB80102D
:1009C00000F1804000F5A040D0F8400100F00100A7
:1009D0007047C44900230B6202680A6042684A609B
:1009E00082688A60C268CA60426A0A64826A4A642B
:1009F00002698A614269CA61826B0A66826C0A670F
:100A0000C26C4A67026D8A67426DCA67826DC1F81F
:100A10008020C26DC1F88420026EC1F88820426E29
:100A2000C1F88C20426FC1F8B020C26FC1F8B82065
:100A3000C26EC1F8A820D0F89422C1F85023D0F893
:100A40009822C1F85423D0F89C22C1F85823D0F83A
:100A5000A022C1F85C23D0F88420C1F8F020D0F89F
:100A60008820C1F8F420D0F88C20C1F8F820D0F804
:100A70009020C1F8FC2021224A63CA63C2694A62FD
:100A8000C26A8A64026BCA64026FC1F8AC20026A4F
:100A9000CA62426B0A65C26B4A66026C8A66426C25
:100AA000CA66826FC1F8B420D0F88020C1F8BC209B
:100AB000D0F8A422C1F86023D0F8A822C1F864239A
:100AC000D0F8AC22C1F86823D0F8B022C1F86C236A
:100AD000D0F8B422C1F87023D0F8B822C1F874233A
:100AE000D0F8BC22C1F87823D0F8C022C1F87C230A
:100AF000D0F88C2222F48032C1F84023D0F8902222
:100B0000C1F84C23D0F89420C1F80021D0F89820E7
:100B1000C1F80421D0F89C20C1F80821D0F8A02009
:100B2000C1F80C21D0F8A420C1F81021D0F8A820D9
:100B3000C1F81421D0F8C820C1F83421D0F8AC2075
:100B4000C1F81821D0F8B020C1F81C21D0F8B42089
:100B5000C1F82021D0F8B820C1F82421D0F8BC2059
:100B6000C1F82821D0F8C020C1F82C21D0F8C42029
:100B7000C1F83021D0F8CC20C1F84021D0F8D020E5
:100B8000C1F84421D0F8D820C1F84C21D0F8E42095
:100B9000C1F86021D0F8E820C1F86421D0F8EC2039
:100BA000C1F86821D0F8F020C1F86C21D0F8D42029
:100BB000C1F84821D0F8DC20C1F85021D0F8E0205D
:100BC000C1F85421D0F8F420C1F87021D0F8F820F1
:100BD000C1F87421D0F8FC20C1F87821D0F80021A8
:100BE000C1F87C21D0F83C21C1F8C021D0F84021C7
:100BF000C1F8C421D0F84421C1F8C821D0F8482157
:100C0000C1F8CC21D0F84C21C1F8D021D0F8502126
:100C1000C1F8D421D0F87021C1F8F421D0F85421C2
:100C2000C1F8D821D0F85821C1F8DC21D0F85C21D6
:100C3000C1F8E021D0F86021C1F8E421D0F86421A6
:100C4000C1F8E821D0F86821C1F8EC21D0F86C2176
:100C5000C1F8F021D0F87421C1F80022D0F8782131
:100C6000C1F80422D0F88021C1F80C22D0F88C21E0
:100C7000C1F82022D0F89021C1F82422D0F8942184
:100C8000C1F82822D0F89821C1F82C22D0F8AC2144
:100C9000C1F84022D0F8B021C1F84422D0F8B821E0
:100CA000C1F84C22D0F8C421C1F86022D0F8C82184
:100CB000C1F86422D0F8CC21C1F86822D0F8D02144
:100CC000C1F86C22D0F87C21C1F80822D0F8842128
:100CD000C1F81022D0F88821C1F81422D0F89C2144
:100CE00002E0000000500040C1F83022D0F8A021FE
:100CF000C1F83422D0F8A421C1F83822D0F8A821B4
:100D0000C1F83C22D0F8B421C1F84822D0F8BC2167
:100D1000C1F85022D0F8C021C1F85422D0F8D42113
:100D2000C1F87022D0F8D821C1F87422D0F8DC21A3
:100D3000C1F87822D0F8E021C1F87C22D0F8E42173
:100D4000C1F88022D0F8E821C1F88422D0F8EC2143
:100D5000C1F88822D0F8F021C1F88C22D0F8F42113
:100D6000C1F89022D0F8F821C1F89422D0F81822C6
:100D7000C1F8B422D0F8FC21C1F89822D0F80022A2
:100D8000C1F89C22D0F80422C1F8A022D0F8082291
:100D9000C1F8A422D0F80C22C1F8A822D0F8102261
:100DA000C1F8AC22D0F81422C1F8B022D0F81C222D
:100DB000C1F8C022D0F82022C1F8C422D0F82822DD
:100DC000C1F8CC22D0F83422C1F8E022D0F8382281
:100DD000C1F8E422D0F83C22C1F8E822D0F8402241
:100DE000C1F8EC22D0F85422C1F80023D0F85822E0
:100DF000C1F80423D0F86022C1F80C23D0F86C228B
:100E0000C1F82023D0F87022C1F82423D0F874222E
:100E1000C1F82823D0F87822C1F82C23D0F8242256
:100E2000C1F8C822D0F82C22C1F8D022D0F8302244
:100E3000C1F8D422D0F84422C1F8F022D0F84822D8
:100E4000C1F8F422D0F84C22C1F8F822D0F8502290
:100E5000C1F8FC22D0F85C22C1F80823D0F8642243
:100E6000C1F81023D0F86822C1F81423D0F87C22EE
:100E7000C1F83023D0F88022C1F83423D0F884227E
:100E8000C1F83823D0F88822C1F83C23FD4A126803
:100E900032F0FF0C05D1D1F890C062F3030CC1F819
:100EA00090C0F94A5370D0F8943213F0010F1CBF70
:100EB00001235370D1F8503323F00103C1F85033AC
:100EC000D0F8A43213F0010F03D0537843F002039B
:100ED0005370D1F8603323F00103C1F86033D0F8C8
:100EE000B43213F0010F03D0537843F0040353706E
:100EF000D1F8703323F00103C1F87033D0F8AC029D
:100F000010F0010F03D0507840F008005070D1F875
:100F1000680320F00100C1F868037047DA480078E0
:100F20007047D94880787047D749C8707047D6480D
:100F3000C0787047D549D1F8542360F30902C1F84D
:100F400054237047D148D0F85403C0F309007047C8
:100F5000CD4948607047CD48C06870472DE9F047DB
:100F6000DFF82493054615F4003F99F8010099F83D
:100F7000031000EA010418BF24F0010415F4802FC7
:100F800018BF24F0020415F4002F18BF24F0040445
:100F900015F4801F18BF24F00804DFF8F082D8F899
:100FA000400320F48030C8F8400314F00F0F65D0E0
:100FB000D9F80460D8F84803002740F00100C8F8C9
:100FC0004803D8F8480320F00100C8F84803D8F8CF
:100FD000400340F48030C8F840034FF0630A0DE04E
:100FE00002F0CBFE5046D8F8481311F0010F01D0A3
:100FF000012703E0011EA0F10100F4DC301EA6F180
:10100000010601DD002FEBD0BFB3D8F8500314F078
:10101000010F0CBF20F0010040F00100C8F85003A0
:10102000D8F8600314F0020F14BF40F0010020F064
:101030000100C8F86003D8F8700314F0040F14BF5F
:1010400040F0010020F00100C8F87003D8F86803F0
:1010500014F0080F14BF40F0010020F00100C8F8A0
:10106000680389F80240012089F80000D8F840039D
:1010700040F48030C8F840033AE0FFE7D8F8500366
:1010800020F00100C8F85003D8F8600320F00100F8
:10109000C8F86003D8F8700320F00100C8F87003A6
:1010A000D8F8680320F00100C8F86803002089F828
:1010B0000200ACB1022089F80000D8F8400340F4E7
:1010C0008030C8F84003D8F8480340F00100C8F861
:1010D0004803D8F8480320F00100C8F8480307E0A7
:1010E000D8F8401321F48031C8F8401389F8000083
:1010F000D8F8400115F0020F20F00D0018BF40F0A5
:10110000010015F0080F18BF40F0040015F0040F9F
:1011100018BF40F00800C8F8400115F0010F21D0B9
:1011200001F05DF9044601F05DF90146D8F80C00C4
:1011300000280EBF2046084621460028D8F80002A5
:1011400014BF40F0010020F00100C8F80002D8F8F8
:101150004002002914BF40F0010020F00100C8F84F
:1011600040020BE0D8F8000220F00100C8F80002AD
:10117000D8F8400220F00100C8F8400215F0200F16
:1011800018BF002417D0204601F033F900284FEA99
:10119000841000F1804000F5A040D0F8C01214BFC8
:1011A00041F0010121F00101C0F8C012641C022CC1
:1011B000E9D3BDE8F087D8F8C00220F00100C8F8F4
:1011C000C002D8F8000320F00100C8F80003BDE811
:1011D000F0872DE9F003024602F00F01002001EB39
:1011E00041018C01C2F3031104EB811101F1804133
:1011F00001F5A041D1F8401111F0010F11D142F0D9
:101200001001C1F3031104EB811101F1804101F5DB
:10121000A041D1F8401111F0010F04BFBDE8F00367
:10122000704702EB42018E0106F1804101F5A041B9
:10123000D1F82431C3F30809144BDB69D1F800114C
:1012400003F008071FFA81F8002142EA0113C3F3F3
:10125000031304EB831303F1804303F5A043D3F896
:10126000403113F0010F20D006EB811303F18043CE
:1012700003F5A043D3F844C1CCF3080517F1000CE3
:1012800006E00000E0FE0300208400100050004053
:101290001CBFD3F844C1CCF3023CD3F8403105FA6B
:1012A0000CFCC3F3054360441844491C0229CCD309
:1012B00009EBC90100FB08F001EB0911BDE8F003DF
:1012C00000EB4100704710B50120FFF782FF044694
:1012D0000220FFF77EFF044400F03DFC20444FF461
:1012E0007A7148434CF25031B0FBF1F010BD2DE95A
:1012F000F041FB4E0546306810F01F0408BF012482
:101300000120FFF766FF07460220FFF762FF074450
:1013100000F021FC3918F34F002D18BF00294ED0E2
:10132000D6F85003002210F0010F36D07820B0EB31
:10133000151F08D9D6F85C0320F00F0040F001001B
:10134000C6F85C032EE0D6F85403E74BC0F309005F
:1013500060436FF0180C00FB0CF003EB4003E34814
:10136000A0FB05C04FEA502CB3FBF1F0102828BFBA
:101370000F20844598BF6046002808BF012005D093
:10138000012884BF00FB1132B2FBF0F2D6F85C33C7
:1013900060F30303C6F85C3304E0B7FBF5F0884262
:1013A00088BF421A32206043B2FBF0F0B0F5005F14
:1013B00028BF41F6FF70726860F30C0272607068BB
:1013C000C0F30C00604300EBC00202EB001001EB25
:1013D0004000B7FBF0F0BDE8F081C148D0F85013F1
:1013E00011F0010F07D0D0F85C0300F00F00C0EB44
:1013F00000108001704770B50168406801F01F055A
:10140000C0F30C060120FFF7E4FE04460220FFF7BC
:10141000E0FE044400F09FFB06FB05F1322201FBD5
:1014200002410844AF49B1FBF0F070BDAC48D0F8C0
:101430005C0300F00F007047A9494A684B68C2F38B
:101440000C0260F30C034B6010467047A4484068E0
:10145000C0F30C00704700EB4000800100F18040B9
:1014600000F5A040D0F80001A14980B2B1FBF0F036
:10147000401C4008704730B49D4B31B1B3FBF1F1D3
:10148000491C4A08B2F5804F01D343F6FF72B3FB03
:10149000F2F1491C4D0800EB40018901530801F1AC
:1014A000804101F5A041002807BF981FA3F10C0C53
:1014B000D1F8040180B218BFA2F1060C2CF0010C87
:1014C000D1F8004162F30F04C1F80041D1F80021C6
:1014D00063F31F42C1F80021D1F8042160F30F0229
:1014E000C1F80421D1F818016CF30F00C1F81801FC
:1014F000284630BC704700EB4000800100F180407E
:1015000000F5A040D0F80001000C704700EB40024D
:10151000920102F1804202F5A042D2F8003161F35B
:101520001F43C2F80031002818BF70478A1F901F60
:1015300020F001016A48D0F8043162F30F03C0F8CB
:101540000431D0F8182161F30F02C0F81821704758
:1015500000F00F0101EB41018901C0F3031001EB21
:10156000801000F1804000F5A040D0F84401C0F3A5
:101570000800704700F00F0202EB42029201C0F334
:1015800003105C4B02EB801000F1804000F5A0409E
:101590009B58D0F84421CB1A61F30802C0F84421CB
:1015A000D0F844119B1E63F31841C0F844117047F2
:1015B0004B49C969504A11F0100F00F00F0101EBBF
:1015C00041014FEA8111C0F3031001EB801000F1DB
:1015D000804000F5A0405258D0F84401D2B2C0F388
:1015E000080008BF0022801A0004000C08BF012078
:1015F000704703091B0203EB810101F1405101F522
:1016000040410007C00E0B6802FA00F01843086062
:1016100070470209120202EB810101F1405101F50C
:10162000404100070968C00E21FA00F000F00300F5
:10163000704700F00F0303EB43039B01C0F303105B
:1016400003EB801000EB810000F1804000F5A0402A
:10165000C0F85021704700F00F0202EB42029201E5
:10166000C0F3031002EB801000EB810000F180401A
:1016700000F5A040D0F850017047194A0021D26906
:1016800012F0080F10D000F00F0101EB41018901A9
:10169000C0F3031001EB801000F1804000F5A04082
:1016A000D0F84401C0F30231084670470C4AD369B0
:1016B00043F00803D36100F00F0202EB42029201F3
:1016C000C0F3031002EB801000F1804000F5A04051
:1016D000D0F8442161F30E32C0F844217047000075
:1016E000005000400008AF2FD8810C0089888888FE
:1016F000A08601001C51004028510040F84A0021FA
:10170000D26912F0080F10D000F00F0101EB410177
:101710008901C0F3031001EB801000F1804000F557
:10172000A040D0F84801C0F302410846704700F0DD
:101730000F0202EB42029201C0F3031002EB801091
:1017400000F1804000F5A040D0F8482161F312423A
:10175000C0F848217047042988BF704710B400239F
:10176000DF4CE26912F0080F00F00F0202EB4202B8
:101770004FEA8212C0F3031002EB801000EB040268
:101780001CBFD2F84401C0F302330020D4F81CC0BF
:101790001CF0080F1CBFD2F84801C0F30240C91A60
:1017A0000844042803DD081A011D042003E0002872
:1017B000BCBF014400201944E36943F00803E3611E
:1017C000D2F8443161F30E33C2F84431D2F84811F3
:1017D00060F31241C2F8481110BC7047C04900289C
:1017E000886914BF40F0080020F008008861704745
:1017F000BB488069C0F3C000704700F00F0202EBE5
:1018000042029201C0F3031002EB801000F180400D
:1018100000F5A040C0F84C11704700F00F0101EB3B
:1018200041018901C0F3031001EB801000F18040F9
:1018300000F5A040D0F84C017047A94AD2F85C13DB
:10184000022903D110F0010F18BF7047D2F84001F0
:1018500010F0010F0BD0D2F84C01D2F8441100283F
:10186000C1F302311EBF0029C043C2F84C0101215F
:1018700001EB410100204FEA811C0CEB801101F1CA
:10188000804101F5A041D1F8402112F0010F0BD0A9
:10189000D1F84C21D1F84431002AC3F302331EBFE2
:1018A000002BD243C1F84C21401C0228E5D37047DD
:1018B0008B4A0021D26912F0080F10D000F00F01FE
:1018C00001EB41018901C0F3031001EB801000F12D
:1018D000804000F5A040D0F84801C0F30051084610
:1018E00070470120704710B4022ADDF804C026BFFB
:1018F000921E52080022022B26BF9B1E5B0800236B
:10190000784CA4FB0C4C4FEA1C1400F00F0C0CEBB1
:101910004C0C4FEA8C1CC0F303100CEB801000F150
:10192000804000F5A040D0F864C161F31B6C62F305
:10193000144C63F30C2C64F3070CC0F864C110BCA6
:10194000704770B400F00F0404EB4404A401C0F32A
:10195000031004EB801000F1804000F5A040DDF89A
:101960000CC0D0F864010029C0F30366C0F304443E
:10197000C0F30425C0B218BF0E6012B16100891C0B
:10198000116013B16900891C1960BCF1000F04BF1C
:1019900070BC704700EB80008000CCF8000070BC89
:1019A000704770B491B000224FF480456C10EC4643
:1019B00001E0082A05D2531C03EB8303B5FBF3F3C4
:1019C00004E0D31F03EB8303B4FBF3F35B1A48BFBC
:1019D0005B424CF82230521C102AEAD30026009BAE
:1019E00001215CF821209A42BCBF13460E46491CD7
:1019F0001029F6D300F00F0101EB41018901C0F37A
:101A0000031001EB801000F1804101F5A041D1F8F5
:101A10006801D1F8682100F00F0066F30302C1F8F5
:101A20006821082807D2401C00EB8000B5FBF0F0CD
:101A300011B070BC7047C01F00EB8000B4FBF0F029
:101A400011B070BC704700F00F0101EB410189013A
:101A5000C0F3031001EB801000F1804000F5A040BE
:101A6000D0F8680100F00F00082834BF401CC01FE8
:101A700000EB800034BF4FF480414FF40051B1FBC4
:101A8000F0F0704710F00F0F08BF704700F00F0024
:101A900000EB4000800100F1804000F5A0400029EB
:101AA000D0F82C110CBF21F4803141F48031C0F802
:101AB0002C117047002110F00F0F0ED000F00F0016
:101AC00000EB4000800100F1804000F5A040D0F81C
:101AD0002C0110F4803F18BF012108467047000018
:101AE00000500040CDCCCCCC00F00F0000EB40000B
:101AF000800100F1804202F5A042D2F83401C2F820
:101B0000341170472F4B58679967DA6770472D4932
:101B10000028D1F8AC0014BF40F0020020F0020011
:101B2000C1F8AC00704727490028D1F8AC0014BFB9
:101B300040F0010020F00100C1F8AC0070472148DE
:101B4000D0F8E00070471F49C1F8E40070471D4815
:101B5000D0F89800704770B41A4E0020D6F84011A3
:101B600011F0010F04BF70BC704711F0040FD6F8DC
:101B7000242101F00805D6F800C1C2F308021FFABB
:101B80008CF4D6F844C1CCF3080C18BFC1F307405D
:101B9000F369C1F3052113F008031CBFD6F84431E3
:101BA000C3F30233002D18BF491C0CFA03F301FBE9
:101BB0000300604302EBC20170BC01EB021100EBB9
:101BC0004100704700500040FEF7ADBE10B5FEF773
:101BD000AAFE012818BF10BD0020FEF78CFE2121AF
:101BE0000020FEF7A6FE2121BDE810400120FEF7EF
:101BF000A0BE10B5FEF778FEFEF795FE01280AD1CB
:101C00000020FEF778FE21210020FEF792FE212120
:101C10000120FEF78EFE0121052001F0F8FB0121D5
:101C2000052001F0F4FBFF490020087110BD10B53C
:101C30004FF4066001F041FCBDE810404FF406602F
:101C400001F02CBCF74A0146107B002818BF012088
:101C5000002918BF012111737047F24A516A50627E
:101C600008467047EF490020C87288704870704776
:101C7000EC490020C87288704870704770B5000742
:101C8000C00E0D46801E00EB400101EB0014E6483B
:101C90004FF4987200EBC40029461AF0CDFBE348DC
:101CA00005F5987100EBC400BDE870404FF49872E0
:101CB0001AF0C2BB2DE9F0410546FEF75AFEDC4F93
:101CC000DFF870830446EDB14C2004FB00F21646A9
:101CD000294638461AF0B0FB324605F50061404609
:101CE0001AF0AAFB04EB440000EB041407EB840099
:101CF0004C211AF0A6FB08EB8400BDE8F0414C2112
:101D00001AF09FBB4C21401C41430C4638461AF048
:101D100098FB21464046BDE8F0411AF092BB10B551
:101D2000C04CE061FFF71AF9FFF7F8F8A1696FF30B
:101D30000F01A161A269C1B242EA0121A161022899
:101D400018BF10BDA06940F00100A06110BDBA48E5
:101D50008168BA4A114381600168521C11430160D5
:101D600000F061BE2DE9F041B34A0C460546936888
:101D7000B248184390601068B1490843106000F001
:101D800052FE0026002C76D00020FEF7B4FD20681D
:101D900020B1FEF71EFE0020FEF7ADFD2846FFF73E
:101DA000BEFF0020FEF703FE70B36068FFF782FFFE
:101DB000A448E16819B102151AF03EFB1DE0A24DDE
:101DC0004FF440711AF03DFB0020012329560029F1
:101DD00010DB0A09120202EB800202F1405202F506
:101DE00040420907C90ED2F800C003FA01F14CEADB
:101DF00001011160401C2628E8D39448616959B15B
:101E00004FF400721AF018FB0120FEF7D0FDDFF846
:101E10001882864F48B904E04FF400711AF011FBA4
:101E2000F2E71120FEF7C3FD70B1A56865B1404629
:101E30004FF4987229461AF0FFFA38464FF4987218
:101E400005F598711AF0F8FA0220FEF7B0FD18B9FE
:101E50001220FEF7ACFD70B1246964B17C484FF4E8
:101E6000987221461AF0E8FA7A484FF4987204F50D
:101E700098711AF0E1FA6B48C67286704670466235
:101E8000017B002101734FF4066001F016FBBDE8F1
:101E9000F0414FF4066001F001BB10B50020FEF7E1
:101EA0002AFD00F0ADFD5F48C078002808BF10BDD6
:101EB0006148016821F0030141F00D7141F080514A
:101EC0000160816821F0020141F00D7141F0805103
:101ED000816010BD4FF4066001F0E5BA10B54FF413
:101EE000066001F0E0FAFEF71EFD01280AD100208D
:101EF000FEF701FD21210020FEF71BFD212101201D
:101F0000FEF717FD5448D0F8401321F48031C0F893
:101F100040130020FEF7EFFC00F072FD4148C0784E
:101F2000002808BF10BD4448016821F0030141F0BA
:101F30000D7141F080510160816821F0020141F092
:101F40000D7141F08051816010BD10B501F0B0FA03
:101F500010F0600018BF012010BD3248C069704702
:101F600030488069704772B62E498A6922EA0000BB
:101F7000886162B670472B480078002818BF01209E
:101F8000704770B5FEF7CFFC002818BF70BD002465
:101F9000244DEC72AC706C7021212046FEF7C9FC18
:101FA00021210120FEF7C5FC2C70BDE87040012006
:101FB000FEF7A1BC70B50446FEF7B5FC002818BFBB
:101FC00070BD0021174DE972A970697021210020B0
:101FD000FEF7AFFC21210120FEF7ABFC022C3CBF39
:101FE0000120FEF7B6FC012028702C62BDE870408D
:101FF000FEF781BC10B5FEF796FC002818BF10BD97
:102000000020084CE072A07060702121FEF791FC66
:1020100021210120FEF78DFC0120FEF79AFC012012
:1020200020701BE028840010189D003018BD00307F
:102030000080003000A00030008000400200341218
:102040000300341200C00030D888001000D00030E7
:10205000489E003048BE0030005000402062BDE87D
:102060001040FEF748BC0020FEF745BCFE490020AA
:10207000887048700120FEF73EBCFB4988627047BB
:10208000F948806A7047002818BF0120F649C862E5
:102090007047F548C06A002818BF0120704700202B
:1020A00000F0CEBB012000F0CBBB10B5FFF747FD21
:1020B0000446FFF748FDED48044208BF10BDEA485A
:1020C000816941F0040181610E2101EAD43104F0FB
:1020D00001020A43816962F31F418161E44801689A
:1020E00041F02001016010BD002818BF0120DE4929
:1020F000C8707047DF487047DF487047DA48006BA8
:102100007047D948406B7047D748806B70472DE9BE
:10211000F04FD84F4FF0000C8DB007F14C04E6465D
:102120004FF0FF3807F80C8004F80CE00CF1010CBC
:10213000BCF1260FF6DB4FF0000C002807DD12F88B
:102140000C5007F80C500CF1010C6045F7DC002234
:102150000126CDF804E06D46CDF800E0002816DD3C
:1021600017F902C0BCF1000F0EDBBCF1260F0BD239
:102170004FEA5C190CF01F0C55F829A006FA0CFC6C
:102180004AEA0C0C45F829C0521C8242E8DB0022C6
:1021900094460DF108094FEA521A02F01F0B55F848
:1021A0002AA006FA0BFB1AEA0B0F1ABF09F802C0A5
:1021B0000CF1010C09F80280521C262AEBDB0022EC
:1021C000002810DD17F902C0BCF1000F08DBBCF1DC
:1021D000260F3ABF19F80CC004F802C004F80280B8
:1021E000521C8242EEDBDFF880A200220028CAF8EF
:1021F00030E009DD14F902C0944502D0CAF830403D
:1022000002E0521C8242F5DBDFF870B20020ABF135
:10221000720404F14C0704F8008007F800E00BF8A2
:1022200000E0401C2628F6DB0020002904DD1A5CB3
:102230002254401C8142FADC0020CDF804E0CDF8A5
:1022400000E0002912DD2256002A0CDB262A0AD2E1
:10225000530902F01F0255F823C006FA02F24CEAB5
:10226000020245F82320401C8842ECDB0020024695
:10227000430900F01F0C55F8233006FA0CFC13EA52
:102280000C0F1ABF09F80020521C09F80080401CEE
:102290002628EDDB002000290BDD2256002A05DB75
:1022A000262A3CBF19F802200BF80020401C884267
:1022B000F3DB0020CAF838E0002909DD1BF9002013
:1022C000824202D0CAF838B002E0401C8842F5DBF6
:1022D00011F0010F18BF252015D0420900F01F038F
:1022E00055F8222006FA03F31A420AD1420900F0F7
:1022F0001F0055F8223006FA00F0184345F8220076
:1023000001E0401EE9D500200246430900F01F0C01
:1023100055F8233006FA0CFC13EA0C0F1ABF09F823
:102320000020521C09F80080401C2628EDDB00200C
:1023300000290ADD2256002A04DB262A3CBF19F8B0
:1023400002203A54401C8842F4DB0020CAF834E0F2
:102350000029DCBF0DB0BDE8F08F3A56824204D0B0
:10236000CAF834700DB0BDE8F08F401C8842F4DB31
:102370000DB0BDE8F08F40F2DB114843404901EB5E
:10238000800070473F49C0EB001001EBC000704770
:10239000DFF8D4C0012B8CF805008CF8061003D9A7
:1023A000401C20F0010011468CF807008CF8081042
:1023B00000FB01F24FF6FF7101EA4202ACF8122075
:1023C00001EA4000ACF8140070472748007A7047D3
:1023D0002548C0797047244A50729172704722484C
:1023E000807A70472048407A7047274A10705170B1
:1023F00070472549085C70472DE9F047DFF8689081
:10240000044699F80C00002804BF99F801001AF05E
:102410001DF899F80B00002808BFBDE8F0874FF0C1
:102420000008D9F81C0047464646454610F0020F02
:102430001CBFDFF84C8010F0040F05D0B9F8121063
:102440000F4A21F001018F1810F0010F18BF0D4E37
:1024500010F0200F18BF0D4DD9F828002060FEF7AE
:1024600060FD10F0010F13E0288400100100070048
:1024700068840010D8880010FE8800107089001051
:10248000988900100491001035840010F491001018
:1024900006D0FEF7CBFF022828BF99F8020000D231
:1024A0000020E760C4E90108C4E904650120BDE833
:1024B000F087FF490020C872704770B50546FEF7E7
:1024C00058FA4C2100FB01F21446FA49284619F04B
:1024D000B3FF224605F50060BDE87040F64919F0EB
:1024E000ABBFF0B583B0FEF744FA044600210846BE
:1024F000FFF7B1F8009001210020FFF7ACF80022AF
:102500000190002C2AD96E464FF0010C4FF6F07561
:1025100002EB4200002100EB02104B0901F01F0703
:1025200056F823300CFA07F73B4211D0CB079B0C2F
:1025300003EB80034F0803EB870303F1405303F5DC
:1025400000431B889BB2AB4202D903B00020F0BD10
:10255000491C2629E1D3521CA242D9D303B0012041
:10256000F0BD70B50D460107C80E811E01EB41009C
:1025700000EB0114D1484FF4987200EBC4012846D7
:1025800019F05AFFCE484FF4987200EBC40105F5DC
:102590009870BDE8704019F04FBF2DE9F04F00F082
:1025A0000F07780083B0A0F1020B0025E9464FF039
:1025B00001084FF6F07647EA051A5046FEF7F7F99C
:1025C000002843D05046FFF758F808FA00F4022CD0
:1025D00088BF022400215046FFF73DF800900121FA
:1025E0005046FFF738F800210190002C2ED90BEB54
:1025F0000500982200FB02FA01EB4102002002EBE9
:10260000011C420900F01F0359F8222008FA03F3C5
:102610001A4215D000F001020AEB423202EB8C02A2
:10262000430802EB830202F1405202F51042B2F875
:10263000182D92B2B24203D903B00020BDE8F08F4A
:10264000401C2628DDD3491CA142D5D36D1C022D88
:10265000B1D303B00120BDE8F08F2DE9F041002691
:10266000934D00280C4640D000F00F01C0F303103A
:1026700001290EBF00210229BDE8F081022828BFF0
:10268000BDE8F0810F18FEF74EF95FEA00081CBFA5
:102690000020FEF730F90023982007FB00FC03EB35
:1026A0004300002200EB031702F001000CEB403066
:1026B000510800EB870000EB810000F1405000F56D
:1026C0001040521CC0F8184D262AEDD35B1C022B7B
:1026D000E5D3B8F1000F08BFBDE8F081AE706E70B1
:1026E000BDE8F0410120FEF706B9FEF71CF95FEAEC
:1026F00000081CBF0020FEF7FEF8002303EB430098
:10270000002200EB031CD007800C510800EB8C006A
:1027100000EB810707F1405707F50047521C3C606A
:10272000262AF0D35B1C312BE8D3B8F1000FD5D1AA
:10273000BDE8F08110B5FEF73BFF5D49088210BD92
:102740005B4AC1B200F47F43128A914288BF1146AE
:102750004FF0640C01FB0CF1B1FBF2F11A0A02FB21
:102760000C1110F4803F12BF08B2484200B270470B
:1027700010B54FF44071534C534819F062FE0020DD
:1027800001232156002910DB0A09120202EB800204
:1027900002F1405202F540420907C90ED2F800C0CA
:1027A00003FA01F14CEA01011160401C2628E8D32C
:1027B00010BD10B5434C4FF44071434819F041FE31
:1027C000002001232156002910DB0A09120202EB26
:1027D000800202F1405202F540420907C90ED2F8C8
:1027E00000C003FA01F14CEA01011160401C2628E7
:1027F000E8D341F678712F4819F023FEBDE8104068
:1028000041F678712C4819F01CBE294810B5808B10
:1028100000F48170FFF783FA4FF440712A4819F0F1
:1028200010FE41F61851234819F00BFE41F61851DD
:10283000214819F006FEBDE810400020FEF7FCBD5F
:1028400070B51B4C0546A06A401CA062E16A0029D5
:1028500018BFFEF7F2FF207850B1206A10B1206A4D
:10286000401E2062206A002804BF0020FEF743F8C3
:1028700020212846FEF75DF8616A00291CBF284622
:102880008847FEF74BFB022826D11048D0F84813A2
:1028900011F0010F20D0D0F8481341F00101C0F829
:1028A0004813D0F8481321F00101C0F848130FE095
:1028B000288400100080003000A00030189D0030F7
:1028C00018BD0030D888001000C000300050004013
:1028D000A06940F00200A0610248016841F02001B7
:1028E000016070BD68840010F0B40024684E0123BC
:1028F00082B0002808BF33701CD00128347018BF84
:10290000747017D0634D2868634908432860317894
:10291000624A002914BF49F608306148D06014BFEC
:1029200060484FF0BB7090605F48006830F0FF0C6B
:1029300008D101E07370E5E7D2F80CC060F3030C36
:10294000C2F80CC040F2E24CA9B1906840F0180007
:1029500090600120009004E00198471E0197FBD28F
:102960000098471E009728BFCDF804C0F4D29068A5
:1029700040F4805090600120009004E00198471ED0
:102980000197FBD20098471E009728BFCDF804C0DE
:10299000F4D2707818B1D06840F03000D060D2F82E
:1029A000B00040F00100C2F8B0000120009004E047
:1029B0000198461E0196FBD20098461E009628BF3D
:1029C000CDF804C0F4D2D3674FF4E0601061C2F8D0
:1029D0008840002918BFC2F89430D06820F0300039
:1029E000D060906820F480509060286820F0040047
:1029F00040F00D7040F08050286002B0F0BC70478D
:102A00002648C16821F03001C160816821F48051FD
:102A100081602048016821F0040141F00D7141F00E
:102A20008051016070471B4802681B4911430160D7
:102A300017491A480A783AB1826842F0180282604F
:102A4000826842F480528260497819B1C16841F0CD
:102A50003001C160D0F8B01041F00101C0F8B010F1
:102A600070471249C0F3080041EA00200B4908648E
:102A7000322000BF401E0028FBDC704707494FF0A2
:102A800020400864322000BF401E0028FBDC704755
:102A90006484001000800040040034120060004094
:102AA00005F4010020009B00D0FE0300130000A0ED
:102AB000424841498161891CC1614A1E42630368E1
:102AC00023F0030343F00D7343F080530360436925
:102AD00023F0010343F00D7343F080534361036916
:102AE0001A430261364A8260364AC260C2681143A4
:102AF000C160354900200860704710B501F035F914
:102B000031480468002C08BF30BFFAD000210160B2
:102B100001F02FF9204610BD10B501F026F9264826
:102B2000294B2649421C1C682CB10020186001F07A
:102B300020F9204610BD72B648638A6120BF8861C3
:102B40004A6362B6BFF36F8FBFF34F8FEBE71B484B
:102B5000016821F0030141F00D7141F080510160E5
:102B60001A49816001691A4A1143016130BF7047F7
:102B700072B6114911484163C91CC161891E816146
:102B800062B670470D480168124A114301607047F0
:102B90000A48016821F0030141F00D7141F08051B4
:102BA0000160704772B6044904488161891CC161A3
:102BB000491E416362B67047000034120080004035
:102BC0003C003412280034126884001008003412CB
:102BD0000100341203003412704770470022B2EB38
:102BE000D10F26D20368B3F1FF3F04BF4368B3F1AE
:102BF000FF3F17D18368B3F1FF3F04BFC368B3F150
:102C0000FF3F0FD10369B3F1FF3F04BF4369B3F145
:102C1000FF3F07D18369B3F1FF3F04BFC369B3F13D
:102C2000FF3F01D0002070472030521CB2EBD10F83
:102C3000D8D30120704710B40023B3EBD20F30D2A9
:102C4000D0F800C00C68A44522D1D0F804C04C686C
:102C5000A4451DD1D0F808C08C68A44518D1D0F87F
:102C60000CC0CC68A44513D1D0F810C00C69A445A1
:102C70000ED1D0F814C04C69A44509D1D0F818C0C1
:102C80008C69A44504D1D0F81CC0CC69A44502D0FD
:102C900010BC00207047203020315B1CB3EBD20FFA
:102CA000CED310BC012070472DE9F041054601F05C
:102CB00064F8002021264FF4825784464FF4E02226
:102CC0001660C5F800C0116841F004011160116878
:102CD00011F0040FFBD1176080232C460021D4F89B
:102CE0000080B8F1FF3F04BFD4F80480B8F1FF3F83
:102CF0001DD1D4F80880B8F1FF3F04BFD4F80C8090
:102D0000B8F1FF3F13D1D4F81080B8F1FF3F04BFF2
:102D1000D4F81480B8F1FF3F09D1D4F81880B8F185
:102D2000FF3F04BFD4F81C80B8F1FF3F08D0C2F8C1
:102D300000C0401CC0B20828C2D30220BDE8F08108
:102D4000491C2034B1EBD30FC9D3C2F800C0012015
:102D5000BDE8F0812DE9F041054601F00EF80020B4
:102D6000092684464FF4E0231E60C5F800C01968A8
:102D700041F004011960196811F0040FFBD12C46D1
:102D80004FF4806200212768B7F1FF3F04BF6768F6
:102D9000B7F1FF3F17D1A768B7F1FF3F04BFE7685E
:102DA000B7F1FF3F0FD12769B7F1FF3F04BF676954
:102DB000B7F1FF3F07D1A769B7F1FF3F04BFE7694C
:102DC000B7F1FF3F08D0C3F800C0401CC0B20328D1
:102DD000CAD30220BDE8F081491C2034B1EBD20FE8
:102DE000D1D3C3F800C00120BDE8F0812DE9F05F28
:102DF0008846814604274FF07F0A4FF0020B4FF4BC
:102E0000E02600F0BAFF4946424653464FF0060C12
:102E1000C6F800B052F8040B41F8040BC6F800C025
:102E2000306810F0040FFBD15B1EF1D2002030603F
:102E30004C4645461F20D4E900C3D4E90221D5F809
:102E400000E0E64504BFD5F804C09C4505D1AB6859
:102E5000934204BFEA688A4208D07F1E03D34846E3
:102E6000FFF722FFCDE70220BDE8F09F10341035B8
:102E7000401EE0D20120BDE8F09F70B50D4604462B
:102E800000F07BFF4FF400722146284619F0D4FA77
:102E9000012070BD2DE9F0410546C005ADF5007D6E
:102EA00014460E46C00D25D0A8466FF308086F469D
:102EB00000F063FF4FF400724146384619F0BCFA47
:102EC000C5F30800C0F50077A74288BF27466844CD
:102ED0003A46314619F0BFFA4046FFF7E5FE0228B0
:102EE00044D069464046FFF781FF022843D03D4465
:102EF0003E44E41BB4F5007F19D34FF40072314611
:102F0000684619F0A8FA2846FFF7CEFE02282DD011
:102F100069462846FFF76AFF02282CD0A4F5007402
:102F200005F5007506F50076B4F5007FE5D2C4B16D
:102F30006F4600F022FF4FF400722946384619F020
:102F40007BFA22463146684619F085FA2846FFF793
:102F5000ABFE02280AD069462846FFF747FF022841
:102F600009D00DF5007D0120BDE8F0810DF5007D53
:102F70000A20BDE8F0810DF5007D0B20BDE8F08151
:102F80002E490860086100F010B82C4908604861BB
:102F900000F00BB82949486770472849886770478F
:102FA000264801210166016570474FF04022116BF0
:102FB00010F0010F18BF21F4404110F0020F1CBFA8
:102FC00021F4405141F4805110F0040F18BF21F456
:102FD000406110F0080F18BF41F4407110F0100F5D
:102FE00018BF41F0C00110F0200F18BF41F03001B0
:102FF00010F0400F18BF41F00C0110F0800F18BF07
:1030000041F0030141F4BE0141F020411163D2F8C7
:10301000901010F4807F1CBF21F0030141F00201E9
:1030200010F4007F1CBF21F00C0040F0080141F4B7
:10303000BE0040F02040C2F89000704700100040F1
:103040007047D0488268D0490A438260C268114301
:10305000C1604169CD4A114341617047C948416926
:1030600021F0010141F00D7141F080514161C168D1
:1030700021F0400141F00D7141F08051C160816843
:1030800021F0400141F00D7141F0805181607047A5
:1030900010B5BC4CA168BC480143A160E16808437D
:1030A000E0606069B94908436061B94843F63F711F
:1030B000C160002181638164C0F8B01003210A203F
:1030C00000F0A5F90A2000F0C5F9606920F00100C0
:1030D00040F00D7040F080506061E06820F04000EA
:1030E00040F00D7040F08050E060A06820F040009B
:1030F00040F00D7040F08050A06010BDA44A1060F8
:103100005160484390607047A14A10605160484345
:1031100010F0010F18BF401C906070479C49C1F827
:10312000B00070479A49002818BF01208864704792
:1031300097498863C86840F00200C8607047DFF8AC
:1031400050C2CCF82000CCF82410CCF82820CCF8C1
:103150002C300120CCF83000DCF8340010F0010FE6
:1031600005D020BFDCF8340010F0010FF9D110F0C9
:10317000020018BF4FF0FF3070478548C16821F04A
:103180000201C16070478248C16841F00101C1601D
:1031900070477F4B186259629A6201201864586C1C
:1031A00010F0010F04D020BF586C10F0010FFAD1BD
:1031B00010F0060018BF4FF0FF3070477448C16828
:1031C00021F00101C16070477148C16841F00401FC
:1031D000C1607047027C017B02F03F0241EA02417C
:1031E0006B4A916501685162416891628168D16260
:1031F00001211165516D11F0010F04D020BF516DF7
:1032000011F0010FFAD1D36D8382D36D1B0CC382F1
:10321000136E0383136E1B0C4383536E8383526EB2
:10322000C2F30E42C28311F0020018BF4FF0FF300C
:1032300070475748C16821F00401C1607047544885
:10324000C16841F00801C1607047DFF844C1CCF8A3
:103250007820CCF82000CCF82430CCF828100120BD
:10326000CCF87000DCF8740010F0010F05D020BF1E
:10327000DCF8740010F0010FF9D110F0060018BF4F
:103280004FF0FF3070474248C16821F00801C1602B
:10329000704701684FEA31423D49C1F89C204068BF
:1032A000C1F8A000C86840F02000C86070470168FD
:1032B0004FEA31423649C1F89C208088C1F8A0000D
:1032C000C86840F02000C8607047314B18625A62ED
:1032D00099620120C3F89400D3F8980010F0010F10
:1032E00005D020BFD3F8980010F0010FF9D110F0ED
:1032F000060018BF4FF0FF307047254A1062516238
:103300000120C2F89000D2F8980010F0010F05D00B
:1033100020BFD2F8980010F0010FF9D110F006008C
:1033200018BF4FF0FF3070471948C16821F02001E5
:10333000C16070471648C16841F01001C160704714
:10334000A3F1050C124BC3F888C018625A62996247
:103350000120C3F88000D3F8840010F0010F05D0DD
:1033600020BFD3F8840010F0010FF9D110F006004F
:1033700018BF4FF0FF3070470548C16821F01001B9
:10338000C1607047008000404000341201003412D8
:10339000009000401B4810B5022140F8501F012149
:1033A00001611021416241F2060141610021816108
:1033B0000421816390214163416B41F0010141632C
:1033C0004FF4817101610161032000F043F8002195
:1033D000032000F01CF8002010BD10B5032000F001
:1033E00045F808484FF480710166002101661021FC
:1033F000816702214165002010BD0349002008704B
:1034000070470000003000406C840010704700F0EE
:103410000303DA004FF0FF0C0CFA02F24FF0050C38
:103420000CEBC30301FA03F300F00C0101F1E021FE
:10343000002807DAD1F8140D90431A401043C1F860
:10344000140D7047D1F8000490431A401043C1F89E
:103450000004704700F01F01012202FA01F1400947
:10346000800000F1E020C0F80011704700F01F015B
:10347000012202FA01F14009800000F1E020C0F8C9
:103480008011704700F01F01012202FA01F140098A
:10349000800000F1E020C0F8801270474FF0E0217A
:1034A000C1F8000170474FF0E021C1F8800170477A
:1034B0004FF0E020D0F8000170474FF0E021C1F854
:1034C00080027047084800687047074A116810601A
:1034D00008467047044A126800F1100352F82300AE
:1034E00042F823107047000008ED00E002210C2094
:1034F000FFF78DBFB8488268B8490A438260C26846
:103500001143C1607047B448816821F4805141F093
:103510000D7141F080518160C16821F4805141F00A
:103520000D7141F08051C1607047AD4881B0016FAD
:1035300011F4007FFBD1816E11F0010F1CBFD0F898
:103540008410009104D0D0F88410009A9142FAD0EF
:10355000016F11F4007F04BF4CF27101016642F269
:103560004131816601B070479D4981B04FF40D52E1
:103570008A660A6FCA66012898BF012005D9401ED5
:10358000B0F5803F28BF4FF6FF7082B24FF05C501D
:1035900040EA022048664FF01140C1F88000086FF1
:1035A00010F4007FFBD1886E10F0010F1CBFD1F822
:1035B0008400009004D0D1F88400009A9042FAD0A0
:1035C000086F10F4007F04BF4CF27100086642F2ED
:1035D0004130886601B07047814881B0016F11F4B5
:1035E000007FFBD1816E11F0010F1CBFD0F8841059
:1035F000009104D0D0F88410009A9142FAD04FF490
:103600000D51816601B070477348806810F4805096
:1036100008BF70477248806E00F001007047704824
:10362000406EC0F30F2070476D48D0F8840070479B
:1036300010B50C20FFF726FF0C20FFF70BFF6849A1
:103640000220486710BD664910B5032088670C202A
:10365000FFF70CFFBDE810400C20FFF713BF614AD5
:1036600011681060084670475D4810B5016FC1666B
:103670005C480068002818BF80475B48016841F437
:103680008051016010BD574840687047524810B5DE
:10369000826852490A438260C2681143C16050493E
:1036A000032088670C20FFF7E1FE0C20FFF7EAFEFD
:1036B00000F05CF94D4B0420C3F888004FF6FF7012
:1036C000C3F88C0072B66033FFF74EFF4FF4007002
:1036D000186062B610BDF8B572B64148016F11F4BA
:1036E000007FFBD1816E11F0010F1CBFD0F8841058
:1036F000009104D0D0F88410009A9142FAD04FF48F
:103700000D51816639494FF400320A6662B6D1F82C
:103710000412314D002946D0324C4FF6FF73591A2E
:10372000A160AA69D5F81CC002F00F020CF00F0CC2
:103730006244121D01FA02F2A2F54341DFF8B0C063
:10374000513961452FD2D0F88400191AE160B1F5E2
:10375000803F28D2274B4FF0000CA1FB03070CFB46
:10376000037301FB0C31634618F07AFE401C4008DD
:103770002061B0F57A7F38BF4FF47A701E4B99689C
:10378000002908BF98605A681A609968C3E9011057
:103790008A421BD9824205D9814201D9616002E087
:1037A000606000E0626000F0EDF8A86820F48050EE
:1037B00040F00D7040F08050A860E86820F4805020
:1037C00040F00D7040F08050E860F8BD8242E9D8CA
:1037D0008142E5D8E2E7000000800040001034128A
:1037E00000C00040708400106884001000A00040F9
:1037F0004F62250000E1F5056C9200100F488168CA
:103800000F4A114381600F48016841F4047101605F
:10381000001F016841F004010160016841F01001DE
:1038200001607047084908607047BFF34F8F08492F
:1038300006480860BFF34F8FFEE70000008000409D
:103840000400341214ED00E008ED00E00400FA0575
:103850000CED00E015488168154A114381601003A2
:10386000416941F001014161016A21F00F021149F2
:103870000A430262104B8A1EC3F8C42001657047D8
:103880004FF04020006900F0700070474FF040207A
:103890000A4940F8301F0A4941600A4901660A494D
:1038A000416670474FF040204068704700800040FC
:1038B0000400341203005FA000600040C0845FA0D9
:1038C00055995FA00A005FA000005FA0022824BFF6
:1038D00000207047DE4B53F8202043F8201010469C
:1038E000704770B5DB4C206FD94D10F0010F05D03B
:1038F0000120E0662868002818BF8047206F10F07C
:10390000020F08BF70BD0220E0666868002808BF8B
:1039100070BDBDE870400047CF4810B58268CF4900
:103920000A438260C2681143C160CA4902220A6523
:1039300001230B660323CB664A65816821F0800171
:1039400041F00D7141F080518160C16821F080012A
:1039500041F00D7141F08051C1600920FFF77AFDFF
:103960000221BDE810400920FFF751BDBA48826826
:10397000BA490A438260C2681143C160B549022056
:1039800008657047B34902204865B348816821F053
:10399000800141F00D7141F080518160C16821F0DA
:1039A000800141F00D7141F08051C1607047AA481B
:1039B0008068C0F3C0107047A648016F11F4007F03
:1039C00014BF4FF440714FF480710166704710B519
:1039D000A04CE06F10F0020F4FF0010018BF032061
:1039E000606700F066F99C498A69C96902F00F02B4
:1039F000D04001F00F01C8400521B0FBF1F04FF4B9
:103A000005710009C4F880109549A1FB0010400918
:103A1000C4F88400206F10F4007F14BF4FF440708E
:103A20004FF48070206610BD8A48016F11F4807FCA
:103A300014BF4FF440714FF4007101667047854B1D
:103A400030B4DA6F12F0010F14BF032202225A675A
:103A500000EB4005C5EBC010C1EBC0004FF4FA7499
:103A60004C43C0EB001000EB40007E4904EBC0006B
:103A7000A1FB0010784900224FF0020C8C69C008AD
:103A8000C96904F00F0401F00F012144C840052169
:103A9000B0FBF1F0B0F5803F05D3511C4008CAB22D
:103AA000B0F5803FF9D242EA0C2141F01001C3F891
:103AB0008810C3F88C00186F10F4807F14BF4FF487
:103AC00040704FF40070186630BC70476148016F59
:103AD00011F4003F14BF4FF440314FF480310166C0
:103AE00070475C48016F11F4803F14BF4FF44031C0
:103AF0004FF40031016670475648006FC0F3002054
:103B000070475448006FC0F340207047524989689D
:103B1000C1F3C011002904BF002070474D4900289F
:103B20000CBFD1F80002D1F8040270474A4B9A68E2
:103B3000C2F3C012002A04BF00207047454A002883
:103B40000CBFD2F88000D2F88800C0F30A200CBF66
:103B5000D2F88020D2F8882002F00F02D3F818C0E3
:103B6000DB690CF00F0C03F00F0363441A4491401F
:103B7000012202EB400048433949A1FB0010000933
:103B80007047394901200870704770B4324B3222B7
:103B900051439A69D3F81CC002F00F020CF00F0CCD
:103BA0006244121DD14008BF012104D0B1F5803F0D
:103BB00028BF4FF6FF719A68C2F3C012002A1CBFDB
:103BC00070BC7047D3F808C0244A4CEA020CC3F812
:103BD00008C0D3F80CC04CEA0202DA601D4A4FF06C
:103BE000020CC2F850C04FF4003414660425C2F829
:103BF0008850C2F88C101D4DD566C2F874C01C499F
:103C000002283CBF124E46F82010002116480170D1
:103C10004FF400711166017819B920BF01780029AD
:103C2000FBD014669567D566C2F854C0986820F03A
:103C3000800040F00D7040F080509860D86820F00F
:103C4000800040F00D7040F08050D86070BC70472C
:103C50008884001000A000400080004080003412E2
:103C60001F85EB51CDCCCCCC848400100200020225
:103C7000335B00004FF0E0210020886108611F499C
:103C80004860704710B54FF0E02460610020A061EB
:103C90000221401EFFF7BBFB0720206110BD4FF043
:103CA000E02100200861704714480188491C018008
:103CB00070471248806870472DE9F0410F4C00278B
:103CC00005462780A0684FF47A71B0FBF1F04FF001
:103CD000E026401E7061B7610221C81EFFF797FB06
:103CE000072030612188A942FCD33761BDE8F0810B
:103CF00003494843014988607047000090840010E0
:103D000040420F00704770B505464FF40D50040651
:103D1000A0660320E066264860664CF271002066CB
:103D20002448C4F8800042F24630A06602210020F8
:103D3000FFF76DFB0020FFF78DFB002D08BF70BD66
:103D4000A06E42F241310843A06670BD012110B55A
:103D5000880781674FF40D5181660020FFF786FBCD
:103D6000BDE810400020FFF78DBB012081074867A8
:103D7000704701208107886770474CF27100810706
:103D8000086670470C4A11681060084670470A4878
:103D900008B5006818B18047002818BF08BD4CF26C
:103DA000710188070166016FC166006F009008BD50
:103DB000075E5F3700AF2F919C84001070B5F84DFF
:103DC00000244FF4E4612C706C70EC70F54818F02E
:103DD00038FB4FF4E461F44818F033FBAC602C710D
:103DE0004C21F24818F02DFB4C21F14818F029FB2A
:103DF0006C717421EF4818F024FB7421EE4818F020
:103E000020FBEC60AC71EC612C626C62AC62EC6229
:103E10002C632C6170BDE249002048707047E04877
:103E200040787047DE480079002818BF01207047AD
:103E3000DB488079002818BF01207047D8484079B6
:103E4000002818BF01207047D548C078002818BF47
:103E5000012070470021D248C16201637047D748F2
:103E6000704770B5D64A054610785178421852000E
:103E700014462946D14818F0EEFA22462946D14880
:103E800018F0E9FAC6490120887170BDC44800697C
:103E90007047C348407800EB4001C1EB4010C54972
:103EA00001EB800070472DE9F041BD4D0446C1494A
:103EB0006A78C54F02EB4200C0EB4210C34E01EBE3
:103EC00080033A783078214610444200184618F0B2
:103ED000C2FA6A78B84902EB4200C0EB421001EB2B
:103EE00080033A783078214610444200184618F092
:103EF000B2FA01206871BDE8F081A948C068704736
:103F0000A7484078C0EBC001C1EB8010A54901EB88
:103F1000401070472DE9F041A14E07463078002847
:103F200014BFAB48AB48047814BFAB48AB48057826
:103F300004FB05F8FFF785F829462046FFF7DEF871
:103F40007078994CC0EBC001C1EB801004EB4012BB
:103F5000A4F5E46101EB40103B460146FFF7EFF8A2
:103F6000FFF77CF870784FEA4802C0EBC001C1EB64
:103F7000801004EB4010394618F06DFA0120F07003
:103F8000BDE8F0812DE9F047854D044685496A7802
:103F9000DFF83C82C2EBC200C0EB821001EB4013A1
:103FA0002878DFF830928C4E8C4F002815BF98F897
:103FB000000099F8000032783A7800FB02F04FEAEE
:103FC00040022146184618F046FA6A787649C2EB54
:103FD000C200C0EB821001EB401C2878214600286B
:103FE00015BF98F8002099F8002033783B7802FB41
:103FF00003F04FEA4002604618F02DFA0120E87005
:10400000BDE8F08766488068704770B5744C054617
:10401000014622786548520018F01DFA2278294698
:104020005200634818F017FA5D490120087170BD0D
:104030002DE9F04FADF26C7DDFF864910120CDF8F1
:104040004C0799F80300CDF8480799F80400CDF81B
:10405000440799F80500CDF8400799F80600CDF817
:104060003C0701F05BFB8046FDF7AEFDCDF8640731
:10407000FDF781FFCDF86007FDF7E8F9CDF85C07A3
:10408000FCF74FFF0446FCF749FF0646FDF79EFD8F
:1040900099F802000025002804BF0420C9F8180080
:1040A00008D0B8F1020F1CBF0A20C9F818000CD0C4
:1040B00089F80250FDF791F9083000094FF0010B23
:1040C000CDF85007022E0AD01DE011F077FC10F455
:1040D000817F14BF0F201E20C9F81800E8E7B8F14F
:1040E000020F05D0B8F1050F08BF122007D00AE073
:1040F0004FF47A7141434FF47A7091FBF0F0C9F8B4
:10410000180089F802B0D9F818000428BCBF0420B0
:10411000C9F8180099F80200B9F81810000240EA2E
:10412000014040F001020023912107200AF012FA19
:1041300014F0010F2ED1B8F1020F2BD00020FDF7A3
:104140007BF9FDF757FF18F090F900252F46CDF8C1
:10415000385705F0E1FE012846D00DF5E460FEF782
:104160004BF9002800F0DD820DF5E46006F0E3FD78
:10417000002089F80100D9F81800C01E8542CABF86
:10418000874201240024DDF82C0758B3DDF84407EA
:1041900048B359E0FDF7F5FE0020CDF84C07D2E713
:1041A000A08400107892001098990010F8AE0010CA
:1041B00044AF001090AF001004B00010BC84001099
:1041C00006850010C48400100385001004850010CB
:1041D00001850010FE84001002850010FF8400108D
:1041E0000585001030E004E00120CDF8380700F02C
:1041F00082BADDF82CA77CB1FA4E514630784200E5
:10420000F94818F028F9307851464200F74818F07C
:1042100022F989F804B017E0FEF713FFF14E0121EF
:104220003078FEF76BFFF14A5346A2F14C01084685
:10423000FEF785FFFEF712FF307851464200EB484B
:1042400018F009F989F804B0DDF82807002800F013
:10425000D780DDF84807002840F0D28099F80000A8
:10426000DDF82867F0BBD9F808A0BAF1000F24D018
:10427000DF480078CDF85807DE480078CDF85407BD
:10428000FEF7DFFEDDF85417DDF85807FEF73CFFB8
:10429000314652460846FEF77CFFFEF7DFFED64861
:1042A0000078022804BF504606F015FAD24800787C
:1042B000092804BF304606F00EFAD04800780128DD
:1042C00016D9DFF834A39AF80000042804BF30465A
:1042D00006F001FA3146684618F0CCF806469AF81E
:1042E000000000E004E0052804BF304606F0F3F9C2
:1042F000CCB399F8010099F80020C0EBC001C1EBE4
:104300008011BF48002A00EB411031460CBFBD4A66
:10431000B74A137814BFB74ABB4A127803FB02F2BC
:104320004FEA420218F097F899F80100C0EBC0017B
:10433000C1EB8011B54800EB411399F800003146FC
:10434000002814BFAA48AF48007814BFA94AAE4A53
:10435000127800FB02F04FEA4002184618F07BF892
:1043600089F803B03DE0FFE7CDF8546799F8000005
:10437000002814BF9E48A34890F800A014BF9D4891
:10438000A14806780AFB06F0CDF85807FEF759FE5B
:1043900031465046FEF7B2FE99F801009B4EC0EB45
:1043A000C001C1EB801006EB4012A6F5E46101EB01
:1043B00040100146DDF85437FEF7C1FEFEF74EFE11
:1043C000DDF85807420099F80100C0EBC001C1EBCD
:1043D000801006EB4010DDF8541718F03CF889F80F
:1043E00003B08548007803280AD199F80100C0EB92
:1043F000C001C1EB8011824800EB411006F06BF95F
:10440000DDF8300700287DD0DDF84007002879D19D
:1044100099F80000DDF8306748BBD9F80CA0BAF174
:10442000000F24D07A4801787A4800780844401C6C
:104430004008019002200090FEF703FEDDE9001025
:10444000FEF762FE314652460846FEF7A2FEFEF730
:1044500005FE71480078022804BF504606F049FA6C
:104460006D480078092804BF304606F042FA4CB384
:1044700099F80100DFF898A100EB4001C1EB401171
:1044800066489AF8002000EB8103624831460078C4
:1044900010444200184617F0DEFF99F801005D4A0B
:1044A00000EB4001C1EB40115D489AF800301278F2
:1044B00000EB81001A443146520017F0CCFF89F816
:1044C00005B030E052485349009600780978461804
:1044D000FEF7B7FD701C40080221FEF70FFE99F8A9
:1044E0000100DFF83CA100EB4001C1EB4010AAF154
:1044F00074010AEB800201EB80010846009BFEF785
:104500001EFE00E01EE0FEF7A9FD99F80100720012
:1045100000EB4001C1EB40100AEB8000009917F05E
:104520009AFF89F805B03C48007803280AD199F829
:10453000010000EB4001C1EB4011384800EB810065
:1045400006F0D7F9DDF83407002873D0DDF83C0712
:1045500030B1B8F1020F18BFB8F1050F6BD0BDE054
:1045600099F80000DDF8346740BBD9F810A0BAF123
:10457000000F23D02B48017840780844401C4008A5
:10458000019002200090FEF75CFDDDE90010FEF7CF
:10459000BBFD314652460846FEF7FBFDFEF75EFDC9
:1045A00021480078022804BF504606F0C1FA1E4890
:1045B0000078092804BF304606F0BAFA1948017895
:1045C000407874B10844440022463146174817F039
:1045D00042FF22463146164817F03DFF89F806B0E3
:1045E00042E029E005850010F8AE001044AF00104D
:1045F00001850010028500108585001000850010DF
:1046000078920010FE840010FF840010989900102A
:1046100003850010048500108A85001090AF0010FB
:1046200004B00010068500108F850010BC840010B7
:10463000C484001052E028E00C18FEF702FD601C54
:1046400040080221FEF75AFDFB4A3346A2F1080159
:104650000846FEF774FDFEF701FD62003146F6489C
:1046600017F0F9FE89F806B0F4480078032804BF73
:10467000F34806F05DFA17F002FF0020C9F82C009D
:10468000C9F8300000F01EFF28E00021DDF83407F3
:1046900017F0FAFEDDF85007782828BF15F0010F53
:1046A0001CD0E84C207A58B10820FCF7B2F8E64A52
:1046B0001378527899184A0001460820FBF735FE16
:1046C000E07958B10720FCF7A4F8DF4A014607203B
:1046D000137852781A445200FBF727FEFDF7E9FEE3
:1046E000D9F818006D1C7F1C8542A8BF874211DBDA
:1046F000D9F8140070B1FDF769FADDF85C07FCF732
:104700009BFEDDF8640788B1DDF8600760B1FDF756
:1047100071FC0BE0DDF84C07002818BFFDF76AFCC0
:1047200017E501F048F814E5FDF72BFCDDF8380734
:10473000002804BF0420C9F818000FD0DDF848078E
:1047400089F80300DDF8440789F80400DDF8400724
:1047500089F80500DDF83C0789F80600DDF8380720
:10476000B9F81810000240EA014200239121072005
:1047700009F0F0FEDDF838070DF26C7DBDE8F08F32
:1047800010B50024FDF7E9FBB04910F0020F0AD084
:10479000CA78002A08BF012410F0040F03D00A7958
:1047A000002A08BF012410F0010F03D04A79002A23
:1047B00008BF012410F0200F03D08879002808BF1B
:1047C00001240020002C08BF10BD00200870BDE8A7
:1047D00010402DE438B505460F2411F0EFF840B134
:1047E00000F09CFF022803D000F098FF052800D1BC
:1047F0000E242146284601F0ECF8012804D1FFF7E9
:10480000BFFF009001F05EFA9048C17800291CBFFC
:104810004179002906D0817900291FBF007900283D
:10482000012038BD002038BDD4E7704770B5874CF3
:1048300000250646E57025716571FCF73BF80028F8
:1048400018BFA571002E1CBF0120A070BDE87040EC
:104850000AF051BB002818BF01207C49C87170477D
:104860007A48C079704710B54FF4E461784817F082
:10487000E8FDBDE810404FF4E461764817F0E1BD73
:10488000754870477548017875480078484341007D
:10489000714817F0D6BD70B5064670480478704868
:1048A0000578FEF7CEFB29462046FEF72DFC67482B
:1048B0004078C0EBC001C1EB8010654901EB4012AC
:1048C00031466548FEF765FCFEF7C8FB6548007891
:1048D000152818BF70BD6048BDE8704005F0FBBEEC
:1048E000002818BF01205949C870704710B5574CAF
:1048F000002804BFA06010BDDFF86CC15B490B78D5
:104900005B490A7801465A435200604617F0A3FDFE
:104910005548A06010BD10B54C21564817F091FDC8
:10492000BDE810404C21544817F08BBD51487047EA
:10493000002818BF012045490871704710B574213F
:104940004E4817F07EFDBDE8104074214C4817F02A
:1049500078BD002818BF01203C494871704710B548
:104960003A4C002804BFE06010BD7422014645485F
:1049700017F071FD4348E06010BD34480021C1616B
:10498000016241628162C16201637047002818BF01
:1049900001202E498871704710B52C4C002804BFA7
:1049A000206110BD28490A78497811444A0001461F
:1049B000354817F050FD3448206110BD334870472A
:1049C000214A01463148137852781A44520017F0B0
:1049D00042BD30B44FF0000C029C634304BF30BCB6
:1049E000704732F91C4051F82C502C4440F82C40B0
:1049F0000CF1010C6345F4D830BC7047002B08BFA4
:104A0000704710B4DDF804C0BCF1000F4FF0000C8B
:104A10003ED0002A9CBF10BC704751F82C4004EBDC
:104A20005304B4FBF3F420F81C400CF1010C624574
:104A3000F3D810BC70470000C48400108F850010AC
:104A4000BC840010BC88001006850010A0840010F3
:104A50007892001098990010B8A00010FE84001001
:104A6000FF84001085850010D8A700100185001074
:104A700002850010F8AE001044AF001090AF001097
:104A800004B0001078B00010D4840010CC84001062
:104A9000002A9CBF10BC704751F82C4094FBF3F4E3
:104AA00020F81C400CF1010C6245F5D810BC704791
:104AB00070B5FF4D00260446EE702E716E71FBF747
:104AC000F9FE002818BFAE710AF015FA002C14BFC9
:104AD000012000202870BDE87040FFF7A9BA2DE939
:104AE000F04F8FB04FF4E461F24817F0AAFC742144
:104AF000F14817F0A6FCEE4E00207063B063009002
:104B0000019002900390FDF728FA0446FDF75CF847
:104B10000C90FDF730FA0B90FCF798FC0A90FDF72B
:104B200055F80020FCF788FCFDF764FA00273D46A5
:104B300005F0F2F9012878D004A8FDF75DFC002803
:104B400072D004A806F0F7F814F0020F1DD0D9486F
:104B50000D908346D948DDF818A090F80080D84819
:104B600090F80090FEF76DFA0120FEF7DBFA494657
:104B70004046FEF7C9FA5A4651460D98FEF709FB22
:104B80000020FEF7CFFAFEF769FA14F0010F21D0EA
:104B9000C9480D908346CB484FF00209DDF820A0AC
:104BA0000178C94800780844401C4FEA5008FEF7D5
:104BB00048FA0120FEF7B6FA49464046FEF7A4FA45
:104BC0005A4651460D98FEF7E4FA0020FEF7AAFA7D
:104BD000FEF744FA14F0200F1DD0BC496B4609982B
:104BE00091F800C049781A466144491C4FEA510CBB
:104BF00000214FF002085FEA4C0918BF0CFB08FCCB
:104C000009D030F9118052F82190C84443F821802E
:104C1000491C8C45F5D8FDF74CFC7F1C102F05D2A4
:104C2000FDF7E8F984E700E00CE00125FCF7CEFF92
:104C30000A98FCF701FC0C9848B10B9828B1FDF7D5
:104C4000D9F904E000F0B7FD72E7FDF79AF9002DFD
:104C500052D114F0020F18D09848964B017898481A
:104C60009C46007801FB00F210200021002A0AD99E
:104C70003CF9118008EB5008B8FBF0F723F81170ED
:104C8000491C8A42F4D88B48B06014F0010F18D048
:104C90008C48894B01788C481F4600780A184FF0E1
:104CA00010004FF000010AD037F9118008EB5008CE
:104CB000B8FBF0FC23F811C0491C8A42F4D87E48A6
:104CC000F06014F0200F17D08048814C6B460178BB
:104CD00040780A184FF010014FF000000AD053F846
:104CE00020C00CEB510CBCFBF1FC24F810C0401CA4
:104CF0008242F4D8764830610FB02846BDE8F08F84
:104D0000012070474FF43F3070474FF43F30006848
:104D100070474FF43F310A68B2F1FF3F15D00528C4
:104D200004BFC87A704728DC012804BF087970479F
:104D3000022804BF087A7047032804BF487A7047E6
:104D4000042804BF887A704727E0052813D007DCC1
:104D5000012822D002281CBF032804280BD01CE005
:104D6000142812BF15282D207047162804BF2820AC
:104D70007047172811D100207047142804BF087B02
:104D80007047152804BF487B7047162804BF887BEE
:104D90007047172804BFC87B7047FF20704770B565
:104DA000ADF5007D00244FF40071684617F049FB13
:104DB0004FF43F36FF224FF40071684617F069FB4D
:104DC000FF21254661F307052D22214662F30701E5
:104DD00062F30F2128224BF6BB3062F3174164F3D4
:104DE0001F61CDE90005CDE9024104943046FDF78D
:104DF0005BFF69463046FDF7F9FF0DF5007D70BD9C
:104E00002DE9F04F4FF43F34ADF5017D8346206826
:104E10008A9F984691468A46B0F1FF3F08BFFFF748
:104E2000BEFFD4E901106AF3070069F30F2025687B
:104E300068F31740D4E903646BF3070167F31F605D
:104E40008B460746FF224FF40071684617F021FB9E
:104E50000297CDE90364CDE9005B4FF43F3420466F
:104E6000FDF722FF69462046FDF7C0FF012818BF65
:104E700000200DF5017DBDE8F08F2DE9F04F4FF4D6
:104E80003F3389461D680021ADF5017D904682467D
:104E9000B5F1FF3F02BF08460DF5017DBDE8F08F7B
:104EA000FF22D3E902744FF40071684612E000005B
:104EB000A0840010D8A7001078B000100185001061
:104EC000028500100385001004850010068500107F
:104ED000D4840010D3F810B05E6817F0DAFA6AF3E1
:104EE000070469F30F2468F31744012060F31F647B
:104EF000CDE90274CDE900564FF43F34CDF810B03F
:104F00002046FDF7D1FE69462046FDF76FFF0DF5FF
:104F1000017DBDE8F08F2DE9F04F4FF43F30894E11
:104F200000250368ADF5017D74422F461720FFF779
:104F3000F0FE84461420FFF7ECFE40B2B3F1FF3FD1
:104F400004D0BCF1000F03D12D2801D0FFF727FFBB
:104F50001420FFF7DEFE40B202901520FFF7D9FEC5
:104F60004FFA80F91620FFF7D4FE40B201901620C8
:104F7000FFF7CFFE404240B20090FCF7EEFFDFF8B3
:104F8000C8A1834600208AF803008AF804008AF842
:104F90000500FBF78FFC00281CBF00208AF80600E4
:104FA00009F0A9FF00208AF80000FFF741F81BF084
:104FB000010F04D017F072FA012808BF01251BF079
:104FC000020F7DD061489AF801104FF0000890F868
:104FD00000C05F48C1EBC102C2EB811100785D4A9D
:104FE000002802EB4112C8BFACF1010A1EDD00210E
:104FF000BAF1000F16DD01F1010B01FB00830BFB81
:10500000008B32F8133032F81BB0A3EB0B031BB24A
:10501000002BB8BF5B421BB2BB42C8BF1F46491C36
:105020005145E8DB08F101088045E0DBB945B8BF30
:1050300045F002054FF00008C146BCF1000FC8BFA3
:10504000A0F1010A1BDD0021BAF1000F13DD09FBFD
:10505000001332F813B002EB43035B88ABEB03039E
:105060001BB2002BB8BF5B421BB24345C8BF98467A
:10507000491C5145EBDB09F10109E145E3DB0299EC
:105080004145B8BF45F004054FF00009BCF1000FE1
:1050900013DD002300280CDD09FB003132F911106B
:1050A000B142C8BF0E46A142B8BF0C465B1C83424A
:1050B000F2DB09F10109E145EBDB0198B04200E0C8
:1050C00005E002DB0098A04201DD45F008056042E2
:1050D00008F0FF0B4FF43F3400F0FF08206807F0A2
:1050E000FF0A06F0FF09B0F1FF3F08BFFFF757FEC8
:1050F000D4E901106BF307006AF30F20266869F307
:105100001740D4E9037465F3070168F31F600D4687
:105110008046FF224FF40071684617F0BAF9CDF8C7
:105120000880CDE90374CDE900654FF43F34204693
:10513000FDF7BAFD69462046FDF758FE0DF5017DE5
:10514000BDE8F08FF1D8FFFFA0840010FF840010AD
:10515000FE84001078920010FE4800897047FD48D8
:105160004089704770B515460E46044609F04BFF5E
:10517000002C18BF70BD042806D0F748006890F8CE
:105180002400A84288BF70BD3046BDE8704017F0CB
:105190008AB9084304BF0020107070472DE9F05F02
:1051A0001446DDE90C689946002709F0A1FE0128A4
:1051B0000BD006F071FC012807D0B8F91200962830
:1051C00000DD01273846BDE8F09FE448E4490125A9
:1051D000007891F800A01FFA89FC4FEA194BE345CB
:1051E0001ED3E0491FFA84F94FEA144E4B469E4500
:1051F0000FD30CFB003231F9124036F91220A21AFB
:105200001E323C2A01D900250AE05A1C93B29E4561
:10521000EFD22DB10CF101021FFA82FCE345E5D279
:10522000400000FB0AF23146CE4817F014F9002D79
:105230001CBFB8F91200B0F5877FC3DDC1E72DE9C7
:10524000FF5F8346C5480027DDF838A0057803983E
:10525000109EB9463C4650452CD006FB050E0F98D3
:105260003BF91EC006FB05093BF91900BCEB000326
:1052700048BFA0EB0C0306FB05A83BF91840B4EBB4
:10528000000C48BFA0EB040C03EB0C0004B231F996
:105290001EC031F91900BCEB000348BFA0EB0C03A2
:1052A00031F918C0BCEB000148BFA0EB0C01581845
:1052B0000FFA80F9012A2DD04FF0010817F0F8F805
:1052C000A949002C0A782EDD0F9906FB05113BF940
:1052D00011101431282926D9039902EB0A0C114424
:1052E0008C4520D9119B129D13442A448B421CBF2C
:1052F0008D1A15F1020F30F9115000EB4106B6F985
:105300000260A5EB060508D01E353C2D08D94FF0EC
:10531000000808E0A1450CDD0AE00A35142DF6D896
:10532000491C8C45E2D8A14503DDB8F1000F00D03F
:10533000012704B03846BDE8F09F864800218171FE
:105340008181704770B515460E46044609F0D0FDC0
:105350000021804B002802BF9971998170BDB3F97B
:105360000C008442C8BF9C81B3F90C0000EB801292
:105370007E4880FB02204211A2EBE070A0420FDDCC
:10538000012E0DD09879401CC0B29871032898BFA7
:1053900070BD997199810120D870801E286070BD00
:1053A000997170BD2DE9FF5F044671480A25694E69
:1053B00090F800906C48DDF838B0924690F8008084
:1053C000012B08BFBBF1000F06D030890027E8B1E0
:1053D00009F0DCFD30B119E07079052824BF052003
:1053E000707135E0BAF1010F02D17089C8280DD86B
:1053F00009F07EFD012818BF14230CD0002119EB01
:10540000080218D034F91100984210DD777104B009
:105410000020BDE8F09FBBF1010F08BF2D23EDD0A8
:1054200028230525BAF1000FC8BF1E23E6E7481C54
:1054300081B28A42E6D87079401CC0B27071854250
:1054400006D201984FF0FF3101600120F0707771B2
:1054500004B00020BDE8F09F70B51E4615460C460E
:1054600009F046FD01281AD10021DFF8E8C0002D1F
:10547000C2BF8CF80410002070BD012E0FD09CF824
:105480000400401CC0B28CF804000A2807D94FF071
:10549000FF30206001208CF803008CF804100020FD
:1054A00070BD344A0280428000218280C180018127
:1054B000534243818181C18101824182C182018342
:1054C0008282704723490020C881086170472148C3
:1054D000002141618161704727487047274A014692
:1054E0002548137852781A44520016F0B4BF2DE9BB
:1054F000F04383B00C460546FFF760FA02461E48AB
:105500000021031F002C88BF4FF0010C0AD95E5CFC
:105510002EB935F911603C2EA8BF03F801C0491C13
:10552000A142F4D30B4EB6F80E80B8F1000F09D1AA
:105530000021002C06D935F811C020F811C0491CF3
:105540008C42F8D80021EC46002C22D935F8117095
:1055500016E00000DC84001068860010FE84001055
:10556000FF840010ECB00010048500101F85EB5183
:1055700003850010F1D8FFFFF084001006850010AD
:1055800030F81190A7EB09072CF81170491C8C42D8
:10559000DCD8B8F11E0F24BF0021002C11D9585CB3
:1055A00000281CBF3CF9110010F1140F06DD14286F
:1055B00004DC32F81170384422F81100491CA14271
:1055C000EDD31046FFF7FCF9F08942F210718842E2
:1055D0003ABF401CF081F181464829460278407864
:1055E00010444200444816F036FF03B0BDE8F08393
:1055F000009800140028CCBF0120002070472DE93E
:10560000FF4F83B0064610A81C4690E8000F1546D1
:1056100009F0F9FC019609F07FFC384E002730BBF9
:1056200009F011FE014601AA5846FFF78BFE4B46D2
:10563000424601A9CDF800A00498FFF7B3FE09F097
:1056400057FC012813D1B8F1000FC8BF37710EDC29
:10565000B9F1010F0BD03079401CC0B230710A286B
:1056600005D94FF0FF3001900120F070377101989B
:10567000B0F1FF3F13D1F07801281CBF07B0BDE89F
:10568000F08F2846FFF707F9F770002D1CBF28465A
:10569000FEF778FC002C1CBF2046FEF704FC0198A6
:1056A000002807BF7078012807B0BDE8F08F777039
:1056B00009F0A9FC042810D005F04FFD04280CD0F7
:1056C000002D1CBF2846FEF75DFC002C1CBF2046A9
:1056D000FEF7E9FB07B0BDE8F08F002D1CBF2846A0
:1056E000FEF718FC002C1CBF204616F0E6FE07B0A3
:1056F000BDE8F08F06850010F0840010DC840010F7
:1057000010B506F0F9FB06F0A2FC002010BD000069
:10571000FE4988707047FD4880787047FB480078E4
:105720007047FA4840787047F8480078022805D05A
:1057300005281CBF0020704705F00FBD09F063BCB1
:10574000F2490870704770B5F04E04460D46307847
:10575000A04212D002281AD0052814BF002005F05C
:10576000FCFC44EA05213278002341EA024141EA87
:1057700000626121072008F0EDFE7570072C28BF3C
:1057800070BDDFE804F016070B13160F160009F0C2
:105790003AFCE6E7284600F0A3FA0AE0284609F0BA
:1057A0002DFC06E0284605F0CDFC02E0284608F076
:1057B00089FF347070BDD64900200968B1F86410C3
:1057C00011F4807F08BF7047FDF797B9D0490020DA
:1057D0000968B1F8641011F4807F08BF7047FDF7C5
:1057E0009BB9CB4900200968B1F8641011F4007F1F
:1057F00008BF704716F066BEC54900200968B1F8B9
:10580000641011F4806F08BF704716F060BEBF4986
:10581000C87800281CBF401EC870704770B5BD49CD
:10582000D1F8CC00B94C10F0030F0AD040F4BE0000
:1058300040F02040C1F8C800E078002804BF0120F3
:10584000E070B5488068B24D10F0020F296807D1AA
:105850004FF04020406910F0010F01D0E07840B1D6
:10586000B1F86410002011F4807F18BFFDF754F9DF
:1058700007E0B1F86410002011F4806F18BF16F033
:1058800026FEA649084208BF70BD2968496E090C6A
:10589000E17070BD10B572B6FEF758FABDE8104061
:1058A000FDF7C3BF10B5012802D0022805D008E0DB
:1058B0004FF44330FDF7F8F903E04FF040219848EA
:1058C000086772B6FEF742FABDE81040FDF7ADBFBB
:1058D0008E4900280A7918BF01200871C0B282429F
:1058E00008BF70470022002818BF012200230121B1
:1058F000022008F02FBE85480079002818BF01203B
:1059000070478248407970472DE9F0417F4E00286A
:105910001CBF0020707104D17079002818BFBDE849
:10592000F0814FF040273D6B0120FDF72EFB042056
:10593000FDF72BFB7B4C0520E066FEF71EFA40F2DC
:10594000CF70216F11F0010F04D0707940F00E007C
:10595000707103E0011EA0F10100F2DC707978B1F2
:10596000FEF70BFA7048216F11F0040F04D0707924
:1059700040F00100707103E0011EA0F10100F2DCB3
:1059800045F4BE0040F020403863BDE8F0815F4838
:10599000406970475D48006970475C4800690028AD
:1059A00018BFC07A70475949886170475748806965
:1059B00070475649C86170475448C0697047544899
:1059C000026802F5C073118A508A02F5A072FCF7D2
:1059D0009EBB2DE9F04FDFF8349197B08A46C9F8A5
:1059E000140006F0A3F9C9F81000002800F0B780F1
:1059F00090F800C089F806C0417889F807108378CC
:105A000004460CF1010089F8083000F0FE0089F826
:105A10000900E27889F80A20207989F80B0060797A
:105A200089F80C0009F10E05A0792870E0796870FA
:105A3000207889F80D006046FCF7AAFC99F80C1054
:105A400099F80B00FCF7C7FC69782878FCF7CDFCC7
:105A50006946204606F093F9608AD9F81850002864
:105A60001CBF6843050BB4F81A80D9F81C60B8F164
:105A7000000F08BF4FF48058678C002F08BF4FF409
:105A8000805700201AF0040F18BF4FF485701AF0E9
:105A9000080F18BF40F004001AF0020F1CBF40F2BC
:105AA000012108431AF0010F18BF40F48460616AB5
:105AB0006FF30F0A08406FF30F0108434AEA000A28
:105AC0000098109004981190089812900C981490D7
:105AD000019813900798159010A95046FCF742F9C9
